:100000000C9434000C9446000C9446000C9446006A
:100010000C9446000C9446000C9446000C94460048
:100020000C9446000C9446000C9446000C94460038
:100030000C9446000C9446000C9446000C94460028
:100040000C9446000C9446000C9446000C94460018
:100050000C9446000C9446000C9446000C94460008
:100060000C9446000C94460011241FBECFEFD8E03C
:10007000DEBFCDBF21E0A0E0B1E001C01D92A33002
:10008000B207E1F70E9474000C9484000C94000005
:10009000209A87B1867F87B987B1866087B93C9AF5
:1000A00088B1896088B92898E8E6F0E080818160AD
:1000B0008083ECE6F0E08081896080830895809100
:1000C00001019091020120910001222359F0009733
:1000D00049F0289AE9EFF0E03197F1F700C000000D
:1000E0000197F1CF289808950E94480091E02FE3EE
:1000F0003DE083E0215030408040E1F700C0000047
:0C01000085B1892785B9F3CFF894FFCFB3
:00000001FF
